{
  "_format": "hh-sol-artifact-1",
  "contractName": "SecureBank",
  "sourceName": "contracts/SecureBank.sol",
  "abi": [
    {
      "inputs": [],
      "stateMutability": "nonpayable",
      "type": "constructor"
    },
    {
      "anonymous": false,
      "inputs": [
        {
          "indexed": true,
          "internalType": "address",
          "name": "user",
          "type": "address"
        },
        {
          "indexed": false,
          "internalType": "uint256",
          "name": "amount",
          "type": "uint256"
        }
      ],
      "name": "Deposit",
      "type": "event"
    },
    {
      "anonymous": false,
      "inputs": [
        {
          "indexed": false,
          "internalType": "bool",
          "name": "stopped",
          "type": "bool"
        }
      ],
      "name": "EmergencyStop",
      "type": "event"
    },
    {
      "anonymous": false,
      "inputs": [
        {
          "indexed": true,
          "internalType": "address",
          "name": "user",
          "type": "address"
        },
        {
          "indexed": false,
          "internalType": "uint256",
          "name": "amount",
          "type": "uint256"
        }
      ],
      "name": "Withdrawal",
      "type": "event"
    },
    {
      "stateMutability": "payable",
      "type": "fallback"
    },
    {
      "inputs": [
        {
          "internalType": "address",
          "name": "",
          "type": "address"
        }
      ],
      "name": "balances",
      "outputs": [
        {
          "internalType": "uint256",
          "name": "",
          "type": "uint256"
        }
      ],
      "stateMutability": "view",
      "type": "function"
    },
    {
      "inputs": [],
      "name": "cancelPendingWithdrawal",
      "outputs": [],
      "stateMutability": "nonpayable",
      "type": "function"
    },
    {
      "inputs": [],
      "name": "claimWithdrawal",
      "outputs": [],
      "stateMutability": "nonpayable",
      "type": "function"
    },
    {
      "inputs": [],
      "name": "deposit",
      "outputs": [],
      "stateMutability": "payable",
      "type": "function"
    },
    {
      "inputs": [
        {
          "internalType": "address",
          "name": "",
          "type": "address"
        }
      ],
      "name": "depositors",
      "outputs": [
        {
          "internalType": "bool",
          "name": "",
          "type": "bool"
        }
      ],
      "stateMutability": "view",
      "type": "function"
    },
    {
      "inputs": [],
      "name": "emergencyDrain",
      "outputs": [],
      "stateMutability": "nonpayable",
      "type": "function"
    },
    {
      "inputs": [],
      "name": "emergencyStop",
      "outputs": [
        {
          "internalType": "bool",
          "name": "",
          "type": "bool"
        }
      ],
      "stateMutability": "view",
      "type": "function"
    },
    {
      "inputs": [],
      "name": "emergencyWithdraw",
      "outputs": [],
      "stateMutability": "nonpayable",
      "type": "function"
    },
    {
      "inputs": [
        {
          "internalType": "address",
          "name": "_user",
          "type": "address"
        }
      ],
      "name": "getBalance",
      "outputs": [
        {
          "internalType": "uint256",
          "name": "",
          "type": "uint256"
        }
      ],
      "stateMutability": "view",
      "type": "function"
    },
    {
      "inputs": [],
      "name": "getContractBalance",
      "outputs": [
        {
          "internalType": "uint256",
          "name": "",
          "type": "uint256"
        }
      ],
      "stateMutability": "view",
      "type": "function"
    },
    {
      "inputs": [],
      "name": "getContractStats",
      "outputs": [
        {
          "internalType": "uint256",
          "name": "contractBalance",
          "type": "uint256"
        },
        {
          "internalType": "uint256",
          "name": "totalDepositsAmount",
          "type": "uint256"
        },
        {
          "internalType": "bool",
          "name": "isStopped",
          "type": "bool"
        },
        {
          "internalType": "bool",
          "name": "contractLocked",
          "type": "bool"
        }
      ],
      "stateMutability": "view",
      "type": "function"
    },
    {
      "inputs": [
        {
          "internalType": "address",
          "name": "_user",
          "type": "address"
        }
      ],
      "name": "getPendingWithdrawal",
      "outputs": [
        {
          "internalType": "uint256",
          "name": "",
          "type": "uint256"
        }
      ],
      "stateMutability": "view",
      "type": "function"
    },
    {
      "inputs": [],
      "name": "getVersion",
      "outputs": [
        {
          "internalType": "string",
          "name": "",
          "type": "string"
        }
      ],
      "stateMutability": "pure",
      "type": "function"
    },
    {
      "inputs": [
        {
          "internalType": "address",
          "name": "_user",
          "type": "address"
        }
      ],
      "name": "isDepositor",
      "outputs": [
        {
          "internalType": "bool",
          "name": "",
          "type": "bool"
        }
      ],
      "stateMutability": "view",
      "type": "function"
    },
    {
      "inputs": [],
      "name": "isLocked",
      "outputs": [
        {
          "internalType": "bool",
          "name": "",
          "type": "bool"
        }
      ],
      "stateMutability": "view",
      "type": "function"
    },
    {
      "inputs": [],
      "name": "owner",
      "outputs": [
        {
          "internalType": "address",
          "name": "",
          "type": "address"
        }
      ],
      "stateMutability": "view",
      "type": "function"
    },
    {
      "inputs": [
        {
          "internalType": "address",
          "name": "",
          "type": "address"
        }
      ],
      "name": "pendingWithdrawals",
      "outputs": [
        {
          "internalType": "uint256",
          "name": "",
          "type": "uint256"
        }
      ],
      "stateMutability": "view",
      "type": "function"
    },
    {
      "inputs": [
        {
          "internalType": "uint256",
          "name": "_amount",
          "type": "uint256"
        }
      ],
      "name": "requestWithdrawal",
      "outputs": [],
      "stateMutability": "nonpayable",
      "type": "function"
    },
    {
      "inputs": [],
      "name": "toggleEmergencyStop",
      "outputs": [],
      "stateMutability": "nonpayable",
      "type": "function"
    },
    {
      "inputs": [],
      "name": "totalDeposits",
      "outputs": [
        {
          "internalType": "uint256",
          "name": "",
          "type": "uint256"
        }
      ],
      "stateMutability": "view",
      "type": "function"
    },
    {
      "inputs": [
        {
          "internalType": "uint256",
          "name": "_amount",
          "type": "uint256"
        }
      ],
      "name": "withdraw",
      "outputs": [],
      "stateMutability": "nonpayable",
      "type": "function"
    },
    {
      "inputs": [
        {
          "internalType": "uint256",
          "name": "_amount",
          "type": "uint256"
        }
      ],
      "name": "withdrawWithGasLimit",
      "outputs": [],
      "stateMutability": "nonpayable",
      "type": "function"
    },
    {
      "stateMutability": "payable",
      "type": "receive"
    }
  ],
  "bytecode": "0x60806040526003805461ffff60a01b1916905534801561001e57600080fd5b50600380546001600160a01b031916331790556112de806100406000396000f3fe6080604052600436106101395760003560e01c80637d882097116100ab578063d0e30db01161006f578063d0e30db0146104d3578063db2e21bc146104db578063dfe6b5d6146104f0578063eed75f6d1461053e578063f3f437031461056e578063f8b2cb4f1461059b5761025a565b80637d882097146104105780637ee8b2f8146104265780638da5cb5b1461045c5780639ee679e814610494578063a4e2d634146104b45761025a565b80632f70d1ba116100fd5780632f70d1ba146103495780634b7aac94146103925780635a3ff596146103a757806363a599a4146103c75780636e66d84a146103e85780636f9fb98a146103fd5761025a565b806305836c81146102975780630d8e6e2c146102ae57806327e235e3146102d95780632caac08b146103145780632e1a7d4d146103295761025a565b3661025a57600354600160a81b900460ff16156101715760405162461bcd60e51b81526004016101689061108e565b60405180910390fd5b6003805460ff60a81b1916600160a81b179055346101c15760405162461bcd60e51b815260206004820152600d60248201526c09aeae6e840e6cadcc8408aa89609b1b6044820152606401610168565b34600260008282546101d391906110db565b909155505033600090815260208190526040812080543492906101f79084906110db565b909155505033600081815260016020818152604092839020805460ff191690921790915590513481527fe1fffcc4923d04b559f4d29a8bfc6cda04eb5b0d3c460751c2402c5c5cc9109c910160405180910390a26003805460ff60a81b19169055005b60405162461bcd60e51b8152602060048201526012602482015271119d5b98dd1a5bdb881b9bdd08199bdd5b9960721b6044820152606401610168565b3480156102a357600080fd5b506102ac6105d1565b005b3480156102ba57600080fd5b506102c36106bc565b6040516102d091906110f4565b60405180910390f35b3480156102e557600080fd5b506103066102f4366004611142565b60006020819052908152604090205481565b6040519081526020016102d0565b34801561032057600080fd5b506102ac6106dc565b34801561033557600080fd5b506102ac610344366004611172565b61084c565b34801561035557600080fd5b50610382610364366004611142565b6001600160a01b031660009081526001602052604090205460ff1690565b60405190151581526020016102d0565b34801561039e57600080fd5b506102ac610a12565b3480156103b357600080fd5b506102ac6103c2366004611172565b610aa2565b3480156103d357600080fd5b5060035461038290600160a01b900460ff1681565b3480156103f457600080fd5b506102ac610bd9565b34801561040957600080fd5b5047610306565b34801561041c57600080fd5b5061030660025481565b34801561043257600080fd5b50610306610441366004611142565b6001600160a01b031660009081526004602052604090205490565b34801561046857600080fd5b5060035461047c906001600160a01b031681565b6040516001600160a01b0390911681526020016102d0565b3480156104a057600080fd5b506102ac6104af366004611172565b610cbc565b3480156104c057600080fd5b50600354600160a81b900460ff16610382565b6102ac610e28565b3480156104e757600080fd5b506102ac610f85565b3480156104fc57600080fd5b5060025460035460408051478152602081019390935260ff600160a01b83048116151591840191909152600160a81b90910416151560608201526080016102d0565b34801561054a57600080fd5b50610382610559366004611142565b60016020526000908152604090205460ff1681565b34801561057a57600080fd5b50610306610589366004611142565b60046020526000908152604090205481565b3480156105a757600080fd5b506103066105b6366004611142565b6001600160a01b031660009081526020819052604090205490565b600354600160a81b900460ff16156105fb5760405162461bcd60e51b81526004016101689061108e565b6003805460ff60a81b1916600160a81b17905533600090815260046020526040902054806106635760405162461bcd60e51b8152602060048201526015602482015274139bc81c195b991a5b99c81dda5d1a191c985dd85b605a1b6044820152606401610168565b336000908152600460209081526040808320839055908290528120805483929061068e9084906110db565b9250508190555080600260008282546106a791906110db565b90915550506003805460ff60a81b1916905550565b606060405180606001604052806026815260200161128360269139905090565b6003546001600160a01b031633146107065760405162461bcd60e51b81526004016101689061118b565b600354600160a81b900460ff16156107305760405162461bcd60e51b81526004016101689061108e565b6003805460ff60a81b1916600160a81b1790819055600160a01b900460ff1661079b5760405162461bcd60e51b815260206004820181905260248201527f456d657267656e63792073746f70206d757374206265206163746976617465646044820152606401610168565b60035460405147916000916001600160a01b039091169083908381818185875af1925050503d80600081146107ec576040519150601f19603f3d011682016040523d82523d6000602084013e6107f1565b606091505b505090508061083b5760405162461bcd60e51b8152602060048201526016602482015275115b595c99d95b98de48191c985a5b8819985a5b195960521b6044820152606401610168565b50506003805460ff60a81b19169055565b600354600160a01b900460ff16156108765760405162461bcd60e51b8152600401610168906111cc565b600354600160a81b900460ff16156108a05760405162461bcd60e51b81526004016101689061108e565b6003805460ff60a81b1916600160a81b179055806108d05760405162461bcd60e51b8152600401610168906111f9565b336000908152602081905260409020548111156108ff5760405162461bcd60e51b815260040161016890611241565b336000908152602081905260408120805483929061091e90849061126f565b925050819055508060026000828254610937919061126f565b9091555050604051600090339083905b60006040518083038185875af1925050503d8060008114610984576040519150601f19603f3d011682016040523d82523d6000602084013e610989565b606091505b50509050806109cc5760405162461bcd60e51b815260206004820152600f60248201526e151c985b9cd9995c8819985a5b1959608a1b6044820152606401610168565b60405182815233907f7fcf532c15f0a6db0bd6d0e038bea71d30d808c7d98cb3bf7268a95bf5081b659060200160405180910390a250506003805460ff60a81b19169055565b6003546001600160a01b03163314610a3c5760405162461bcd60e51b81526004016101689061118b565b6003805460ff600160a01b808304821615810260ff60a01b1990931692909217928390556040517fcbe1b789cda412d9e1c647ed03d0c71e2f71484be36f9ca2b2a346b29edf1b7093610a989390049091161515815260200190565b60405180910390a1565b600354600160a01b900460ff1615610acc5760405162461bcd60e51b8152600401610168906111cc565b600354600160a81b900460ff1615610af65760405162461bcd60e51b81526004016101689061108e565b6003805460ff60a81b1916600160a81b17905580610b265760405162461bcd60e51b8152600401610168906111f9565b33600090815260208190526040902054811115610b555760405162461bcd60e51b815260040161016890611241565b3360009081526020819052604081208054839290610b7490849061126f565b925050819055508060026000828254610b8d919061126f565b909155505060405160009033906108fc90849084818181858888f193505050503d8060008114610984576040519150601f19603f3d011682016040523d82523d6000602084013e610989565b600354600160a81b900460ff1615610c035760405162461bcd60e51b81526004016101689061108e565b6003805460ff60a81b1916600160a81b1790553360009081526004602052604090205480610c6b5760405162461bcd60e51b8152602060048201526015602482015274139bc81c195b991a5b99c81dda5d1a191c985dd85b605a1b6044820152606401610168565b336000818152600460205260408082208290555190919083908381818185875af1925050503d8060008114610984576040519150601f19603f3d011682016040523d82523d6000602084013e610989565b600354600160a01b900460ff1615610ce65760405162461bcd60e51b8152600401610168906111cc565b600354600160a81b900460ff1615610d105760405162461bcd60e51b81526004016101689061108e565b6003805460ff60a81b1916600160a81b17905580610d405760405162461bcd60e51b8152600401610168906111f9565b33600090815260208190526040902054811115610d6f5760405162461bcd60e51b815260040161016890611241565b3360009081526004602052604090205415610dcc5760405162461bcd60e51b815260206004820152601a60248201527f5769746864726177616c20616c72656164792070656e64696e670000000000006044820152606401610168565b3360009081526020819052604081208054839290610deb90849061126f565b925050819055508060026000828254610e04919061126f565b9091555050336000908152600460205260409020556003805460ff60a81b19169055565b600354600160a01b900460ff1615610e525760405162461bcd60e51b8152600401610168906111cc565b600354600160a81b900460ff1615610e7c5760405162461bcd60e51b81526004016101689061108e565b6003805460ff60a81b1916600160a81b17905534610eea5760405162461bcd60e51b815260206004820152602560248201527f4465706f73697420616d6f756e74206d75737420626520677265617465722074604482015264068616e20360dc1b6064820152608401610168565b3360009081526020819052604081208054349290610f099084906110db565b925050819055503460026000828254610f2291906110db565b909155505033600081815260016020818152604092839020805460ff191690921790915590513481527fe1fffcc4923d04b559f4d29a8bfc6cda04eb5b0d3c460751c2402c5c5cc9109c910160405180910390a26003805460ff60a81b19169055565b600354600160a01b900460ff1615610faf5760405162461bcd60e51b8152600401610168906111cc565b600354600160a81b900460ff1615610fd95760405162461bcd60e51b81526004016101689061108e565b6003805460ff60a81b1916600160a81b17905533600090815260208190526040902054806110425760405162461bcd60e51b81526020600482015260166024820152754e6f2062616c616e636520746f20776974686472617760501b6044820152606401610168565b3360009081526020819052604081208190556002805483929061106690849061126f565b909155505033600081815260016020526040808220805460ff19169055519091908390610947565b6020808252601f908201527f5265656e7472616e637947756172643a207265656e7472616e742063616c6c00604082015260600190565b634e487b7160e01b600052601160045260246000fd5b808201808211156110ee576110ee6110c5565b92915050565b600060208083528351808285015260005b8181101561112157858101830151858201604001528201611105565b506000604082860101526040601f19601f8301168501019250505092915050565b60006020828403121561115457600080fd5b81356001600160a01b038116811461116b57600080fd5b9392505050565b60006020828403121561118457600080fd5b5035919050565b60208082526021908201527f4f6e6c79206f776e65722063616e2063616c6c20746869732066756e6374696f6040820152603760f91b606082015260800190565b60208082526013908201527210dbdb9d1c9858dd081a5cc81cdd1bdc1c1959606a1b604082015260600190565b60208082526028908201527f5769746864726177616c20616d6f756e74206d75737420626520677265617465604082015267072207468616e20360c41b606082015260800190565b602080825260149082015273496e73756666696369656e742062616c616e636560601b604082015260600190565b818103818111156110ee576110ee6110c556fe53656375726542616e6b2076312e30202d205265656e7472616e63792050726f746563746564a264697066735822122099c3100edd39af3bc3362c3a829d5b04815b5571e231eabf1b0abff0cde547b864736f6c63430008130033",
  "linkReferences": {},
  "deployedLinkReferences": {}
}