{"contracts/SecureBank.sol":{"SecureBank":{"abi":[{"inputs":[],"stateMutability":"nonpayable","type":"constructor"},{"anonymous":false,"inputs":[{"indexed":true,"internalType":"address","name":"user","type":"address"},{"indexed":false,"internalType":"uint256","name":"amount","type":"uint256"}],"name":"Deposit","type":"event"},{"anonymous":false,"inputs":[{"indexed":false,"internalType":"bool","name":"stopped","type":"bool"}],"name":"EmergencyStop","type":"event"},{"anonymous":false,"inputs":[{"indexed":true,"internalType":"address","name":"user","type":"address"},{"indexed":false,"internalType":"uint256","name":"amount","type":"uint256"}],"name":"Withdrawal","type":"event"},{"stateMutability":"payable","type":"fallback"},{"inputs":[{"internalType":"address","name":"","type":"address"}],"name":"balances","outputs":[{"internalType":"uint256","name":"","type":"uint256"}],"stateMutability":"view","type":"function"},{"inputs":[],"name":"cancelPendingWithdrawal","outputs":[],"stateMutability":"nonpayable","type":"function"},{"inputs":[],"name":"claimWithdrawal","outputs":[],"stateMutability":"nonpayable","type":"function"},{"inputs":[],"name":"deposit","outputs":[],"stateMutability":"payable","type":"function"},{"inputs":[{"internalType":"address","name":"","type":"address"}],"name":"depositors","outputs":[{"internalType":"bool","name":"","type":"bool"}],"stateMutability":"view","type":"function"},{"inputs":[],"name":"emergencyDrain","outputs":[],"stateMutability":"nonpayable","type":"function"},{"inputs":[],"name":"emergencyStop","outputs":[{"internalType":"bool","name":"","type":"bool"}],"stateMutability":"view","type":"function"},{"inputs":[],"name":"emergencyWithdraw","outputs":[],"stateMutability":"nonpayable","type":"function"},{"inputs":[{"internalType":"address","name":"_user","type":"address"}],"name":"getBalance","outputs":[{"internalType":"uint256","name":"","type":"uint256"}],"stateMutability":"view","type":"function"},{"inputs":[],"name":"getContractBalance","outputs":[{"internalType":"uint256","name":"","type":"uint256"}],"stateMutability":"view","type":"function"},{"inputs":[],"name":"getContractStats","outputs":[{"internalType":"uint256","name":"contractBalance","type":"uint256"},{"internalType":"uint256","name":"totalDepositsAmount","type":"uint256"},{"internalType":"bool","name":"isStopped","type":"bool"},{"internalType":"bool","name":"contractLocked","type":"bool"}],"stateMutability":"view","type":"function"},{"inputs":[{"internalType":"address","name":"_user","type":"address"}],"name":"getPendingWithdrawal","outputs":[{"internalType":"uint256","name":"","type":"uint256"}],"stateMutability":"view","type":"function"},{"inputs":[],"name":"getVersion","outputs":[{"internalType":"string","name":"","type":"string"}],"stateMutability":"pure","type":"function"},{"inputs":[{"internalType":"address","name":"_user","type":"address"}],"name":"isDepositor","outputs":[{"internalType":"bool","name":"","type":"bool"}],"stateMutability":"view","type":"function"},{"inputs":[],"name":"isLocked","outputs":[{"internalType":"bool","name":"","type":"bool"}],"stateMutability":"view","type":"function"},{"inputs":[],"name":"owner","outputs":[{"internalType":"address","name":"","type":"address"}],"stateMutability":"view","type":"function"},{"inputs":[{"internalType":"address","name":"","type":"address"}],"name":"pendingWithdrawals","outputs":[{"internalType":"uint256","name":"","type":"uint256"}],"stateMutability":"view","type":"function"},{"inputs":[{"internalType":"uint256","name":"_amount","type":"uint256"}],"name":"requestWithdrawal","outputs":[],"stateMutability":"nonpayable","type":"function"},{"inputs":[],"name":"toggleEmergencyStop","outputs":[],"stateMutability":"nonpayable","type":"function"},{"inputs":[],"name":"totalDeposits","outputs":[{"internalType":"uint256","name":"","type":"uint256"}],"stateMutability":"view","type":"function"},{"inputs":[{"internalType":"uint256","name":"_amount","type":"uint256"}],"name":"withdraw","outputs":[],"stateMutability":"nonpayable","type":"function"},{"inputs":[{"internalType":"uint256","name":"_amount","type":"uint256"}],"name":"withdrawWithGasLimit","outputs":[],"stateMutability":"nonpayable","type":"function"},{"stateMutability":"payable","type":"receive"}],"evm":{"bytecode":{"linkReferences":{},"object":"60806040526003805461ffff60a01b1916905534801561001e57600080fd5b50600380546001600160a01b031916331790556112de806100406000396000f3fe6080604052600436106101395760003560e01c80637d882097116100ab578063d0e30db01161006f578063d0e30db0146104d3578063db2e21bc146104db578063dfe6b5d6146104f0578063eed75f6d1461053e578063f3f437031461056e578063f8b2cb4f1461059b5761025a565b80637d882097146104105780637ee8b2f8146104265780638da5cb5b1461045c5780639ee679e814610494578063a4e2d634146104b45761025a565b80632f70d1ba116100fd5780632f70d1ba146103495780634b7aac94146103925780635a3ff596146103a757806363a599a4146103c75780636e66d84a146103e85780636f9fb98a146103fd5761025a565b806305836c81146102975780630d8e6e2c146102ae57806327e235e3146102d95780632caac08b146103145780632e1a7d4d146103295761025a565b3661025a57600354600160a81b900460ff16156101715760405162461bcd60e51b81526004016101689061108e565b60405180910390fd5b6003805460ff60a81b1916600160a81b179055346101c15760405162461bcd60e51b815260206004820152600d60248201526c09aeae6e840e6cadcc8408aa89609b1b6044820152606401610168565b34600260008282546101d391906110db565b909155505033600090815260208190526040812080543492906101f79084906110db565b909155505033600081815260016020818152604092839020805460ff191690921790915590513481527fe1fffcc4923d04b559f4d29a8bfc6cda04eb5b0d3c460751c2402c5c5cc9109c910160405180910390a26003805460ff60a81b19169055005b60405162461bcd60e51b8152602060048201526012602482015271119d5b98dd1a5bdb881b9bdd08199bdd5b9960721b6044820152606401610168565b3480156102a357600080fd5b506102ac6105d1565b005b3480156102ba57600080fd5b506102c36106bc565b6040516102d091906110f4565b60405180910390f35b3480156102e557600080fd5b506103066102f4366004611142565b60006020819052908152604090205481565b6040519081526020016102d0565b34801561032057600080fd5b506102ac6106dc565b34801561033557600080fd5b506102ac610344366004611172565b61084c565b34801561035557600080fd5b50610382610364366004611142565b6001600160a01b031660009081526001602052604090205460ff1690565b60405190151581526020016102d0565b34801561039e57600080fd5b506102ac610a12565b3480156103b357600080fd5b506102ac6103c2366004611172565b610aa2565b3480156103d357600080fd5b5060035461038290600160a01b900460ff1681565b3480156103f457600080fd5b506102ac610bd9565b34801561040957600080fd5b5047610306565b34801561041c57600080fd5b5061030660025481565b34801561043257600080fd5b50610306610441366004611142565b6001600160a01b031660009081526004602052604090205490565b34801561046857600080fd5b5060035461047c906001600160a01b031681565b6040516001600160a01b0390911681526020016102d0565b3480156104a057600080fd5b506102ac6104af366004611172565b610cbc565b3480156104c057600080fd5b50600354600160a81b900460ff16610382565b6102ac610e28565b3480156104e757600080fd5b506102ac610f85565b3480156104fc57600080fd5b5060025460035460408051478152602081019390935260ff600160a01b83048116151591840191909152600160a81b90910416151560608201526080016102d0565b34801561054a57600080fd5b50610382610559366004611142565b60016020526000908152604090205460ff1681565b34801561057a57600080fd5b50610306610589366004611142565b60046020526000908152604090205481565b3480156105a757600080fd5b506103066105b6366004611142565b6001600160a01b031660009081526020819052604090205490565b600354600160a81b900460ff16156105fb5760405162461bcd60e51b81526004016101689061108e565b6003805460ff60a81b1916600160a81b17905533600090815260046020526040902054806106635760405162461bcd60e51b8152602060048201526015602482015274139bc81c195b991a5b99c81dda5d1a191c985dd85b605a1b6044820152606401610168565b336000908152600460209081526040808320839055908290528120805483929061068e9084906110db565b9250508190555080600260008282546106a791906110db565b90915550506003805460ff60a81b1916905550565b606060405180606001604052806026815260200161128360269139905090565b6003546001600160a01b031633146107065760405162461bcd60e51b81526004016101689061118b565b600354600160a81b900460ff16156107305760405162461bcd60e51b81526004016101689061108e565b6003805460ff60a81b1916600160a81b1790819055600160a01b900460ff1661079b5760405162461bcd60e51b815260206004820181905260248201527f456d657267656e63792073746f70206d757374206265206163746976617465646044820152606401610168565b60035460405147916000916001600160a01b039091169083908381818185875af1925050503d80600081146107ec576040519150601f19603f3d011682016040523d82523d6000602084013e6107f1565b606091505b505090508061083b5760405162461bcd60e51b8152602060048201526016602482015275115b595c99d95b98de48191c985a5b8819985a5b195960521b6044820152606401610168565b50506003805460ff60a81b19169055565b600354600160a01b900460ff16156108765760405162461bcd60e51b8152600401610168906111cc565b600354600160a81b900460ff16156108a05760405162461bcd60e51b81526004016101689061108e565b6003805460ff60a81b1916600160a81b179055806108d05760405162461bcd60e51b8152600401610168906111f9565b336000908152602081905260409020548111156108ff5760405162461bcd60e51b815260040161016890611241565b336000908152602081905260408120805483929061091e90849061126f565b925050819055508060026000828254610937919061126f565b9091555050604051600090339083905b60006040518083038185875af1925050503d8060008114610984576040519150601f19603f3d011682016040523d82523d6000602084013e610989565b606091505b50509050806109cc5760405162461bcd60e51b815260206004820152600f60248201526e151c985b9cd9995c8819985a5b1959608a1b6044820152606401610168565b60405182815233907f7fcf532c15f0a6db0bd6d0e038bea71d30d808c7d98cb3bf7268a95bf5081b659060200160405180910390a250506003805460ff60a81b19169055565b6003546001600160a01b03163314610a3c5760405162461bcd60e51b81526004016101689061118b565b6003805460ff600160a01b808304821615810260ff60a01b1990931692909217928390556040517fcbe1b789cda412d9e1c647ed03d0c71e2f71484be36f9ca2b2a346b29edf1b7093610a989390049091161515815260200190565b60405180910390a1565b600354600160a01b900460ff1615610acc5760405162461bcd60e51b8152600401610168906111cc565b600354600160a81b900460ff1615610af65760405162461bcd60e51b81526004016101689061108e565b6003805460ff60a81b1916600160a81b17905580610b265760405162461bcd60e51b8152600401610168906111f9565b33600090815260208190526040902054811115610b555760405162461bcd60e51b815260040161016890611241565b3360009081526020819052604081208054839290610b7490849061126f565b925050819055508060026000828254610b8d919061126f565b909155505060405160009033906108fc90849084818181858888f193505050503d8060008114610984576040519150601f19603f3d011682016040523d82523d6000602084013e610989565b600354600160a81b900460ff1615610c035760405162461bcd60e51b81526004016101689061108e565b6003805460ff60a81b1916600160a81b1790553360009081526004602052604090205480610c6b5760405162461bcd60e51b8152602060048201526015602482015274139bc81c195b991a5b99c81dda5d1a191c985dd85b605a1b6044820152606401610168565b336000818152600460205260408082208290555190919083908381818185875af1925050503d8060008114610984576040519150601f19603f3d011682016040523d82523d6000602084013e610989565b600354600160a01b900460ff1615610ce65760405162461bcd60e51b8152600401610168906111cc565b600354600160a81b900460ff1615610d105760405162461bcd60e51b81526004016101689061108e565b6003805460ff60a81b1916600160a81b17905580610d405760405162461bcd60e51b8152600401610168906111f9565b33600090815260208190526040902054811115610d6f5760405162461bcd60e51b815260040161016890611241565b3360009081526004602052604090205415610dcc5760405162461bcd60e51b815260206004820152601a60248201527f5769746864726177616c20616c72656164792070656e64696e670000000000006044820152606401610168565b3360009081526020819052604081208054839290610deb90849061126f565b925050819055508060026000828254610e04919061126f565b9091555050336000908152600460205260409020556003805460ff60a81b19169055565b600354600160a01b900460ff1615610e525760405162461bcd60e51b8152600401610168906111cc565b600354600160a81b900460ff1615610e7c5760405162461bcd60e51b81526004016101689061108e565b6003805460ff60a81b1916600160a81b17905534610eea5760405162461bcd60e51b815260206004820152602560248201527f4465706f73697420616d6f756e74206d75737420626520677265617465722074604482015264068616e20360dc1b6064820152608401610168565b3360009081526020819052604081208054349290610f099084906110db565b925050819055503460026000828254610f2291906110db565b909155505033600081815260016020818152604092839020805460ff191690921790915590513481527fe1fffcc4923d04b559f4d29a8bfc6cda04eb5b0d3c460751c2402c5c5cc9109c910160405180910390a26003805460ff60a81b19169055565b600354600160a01b900460ff1615610faf5760405162461bcd60e51b8152600401610168906111cc565b600354600160a81b900460ff1615610fd95760405162461bcd60e51b81526004016101689061108e565b6003805460ff60a81b1916600160a81b17905533600090815260208190526040902054806110425760405162461bcd60e51b81526020600482015260166024820152754e6f2062616c616e636520746f20776974686472617760501b6044820152606401610168565b3360009081526020819052604081208190556002805483929061106690849061126f565b909155505033600081815260016020526040808220805460ff19169055519091908390610947565b6020808252601f908201527f5265656e7472616e637947756172643a207265656e7472616e742063616c6c00604082015260600190565b634e487b7160e01b600052601160045260246000fd5b808201808211156110ee576110ee6110c5565b92915050565b600060208083528351808285015260005b8181101561112157858101830151858201604001528201611105565b506000604082860101526040601f19601f8301168501019250505092915050565b60006020828403121561115457600080fd5b81356001600160a01b038116811461116b57600080fd5b9392505050565b60006020828403121561118457600080fd5b5035919050565b60208082526021908201527f4f6e6c79206f776e65722063616e2063616c6c20746869732066756e6374696f6040820152603760f91b606082015260800190565b60208082526013908201527210dbdb9d1c9858dd081a5cc81cdd1bdc1c1959606a1b604082015260600190565b60208082526028908201527f5769746864726177616c20616d6f756e74206d75737420626520677265617465604082015267072207468616e20360c41b606082015260800190565b602080825260149082015273496e73756666696369656e742062616c616e636560601b604082015260600190565b818103818111156110ee576110ee6110c556fe53656375726542616e6b2076312e30202d205265656e7472616e63792050726f746563746564a264697066735822122099c3100edd39af3bc3362c3a829d5b04815b5571e231eabf1b0abff0cde547b864736f6c63430008130033","opcodes":"PUSH1 0x80 PUSH1 0x40 MSTORE PUSH1 0x3 DUP1 SLOAD PUSH2 0xFFFF PUSH1 0xA0 SHL NOT AND SWAP1 SSTORE CALLVALUE DUP1 ISZERO PUSH2 0x1E JUMPI PUSH1 0x0 DUP1 REVERT JUMPDEST POP PUSH1 0x3 DUP1 SLOAD PUSH1 0x1 PUSH1 0x1 PUSH1 0xA0 SHL SUB NOT AND CALLER OR SWAP1 SSTORE PUSH2 0x12DE DUP1 PUSH2 0x40 PUSH1 0x0 CODECOPY PUSH1 0x0 RETURN INVALID PUSH1 0x80 PUSH1 0x40 MSTORE PUSH1 0x4 CALLDATASIZE LT PUSH2 0x139 JUMPI PUSH1 0x0 CALLDATALOAD PUSH1 0xE0 SHR DUP1 PUSH4 0x7D882097 GT PUSH2 0xAB JUMPI DUP1 PUSH4 0xD0E30DB0 GT PUSH2 0x6F JUMPI DUP1 PUSH4 0xD0E30DB0 EQ PUSH2 0x4D3 JUMPI DUP1 PUSH4 0xDB2E21BC EQ PUSH2 0x4DB JUMPI DUP1 PUSH4 0xDFE6B5D6 EQ PUSH2 0x4F0 JUMPI DUP1 PUSH4 0xEED75F6D EQ PUSH2 0x53E JUMPI DUP1 PUSH4 0xF3F43703 EQ PUSH2 0x56E JUMPI DUP1 PUSH4 0xF8B2CB4F EQ PUSH2 0x59B JUMPI PUSH2 0x25A JUMP JUMPDEST DUP1 PUSH4 0x7D882097 EQ PUSH2 0x410 JUMPI DUP1 PUSH4 0x7EE8B2F8 EQ PUSH2 0x426 JUMPI DUP1 PUSH4 0x8DA5CB5B EQ PUSH2 0x45C JUMPI DUP1 PUSH4 0x9EE679E8 EQ PUSH2 0x494 JUMPI DUP1 PUSH4 0xA4E2D634 EQ PUSH2 0x4B4 JUMPI PUSH2 0x25A JUMP JUMPDEST DUP1 PUSH4 0x2F70D1BA GT PUSH2 0xFD JUMPI DUP1 PUSH4 0x2F70D1BA EQ PUSH2 0x349 JUMPI DUP1 PUSH4 0x4B7AAC94 EQ PUSH2 0x392 JUMPI DUP1 PUSH4 0x5A3FF596 EQ PUSH2 0x3A7 JUMPI DUP1 PUSH4 0x63A599A4 EQ PUSH2 0x3C7 JUMPI DUP1 PUSH4 0x6E66D84A EQ PUSH2 0x3E8 JUMPI DUP1 PUSH4 0x6F9FB98A EQ PUSH2 0x3FD JUMPI PUSH2 0x25A JUMP JUMPDEST DUP1 PUSH4 0x5836C81 EQ PUSH2 0x297 JUMPI DUP1 PUSH4 0xD8E6E2C EQ PUSH2 0x2AE JUMPI DUP1 PUSH4 0x27E235E3 EQ PUSH2 0x2D9 JUMPI DUP1 PUSH4 0x2CAAC08B EQ PUSH2 0x314 JUMPI DUP1 PUSH4 0x2E1A7D4D EQ PUSH2 0x329 JUMPI PUSH2 0x25A JUMP JUMPDEST CALLDATASIZE PUSH2 0x25A JUMPI PUSH1 0x3 SLOAD PUSH1 0x1 PUSH1 0xA8 SHL SWAP1 DIV PUSH1 0xFF AND ISZERO PUSH2 0x171 JUMPI PUSH1 0x40 MLOAD PUSH3 0x461BCD PUSH1 0xE5 SHL DUP2 MSTORE PUSH1 0x4 ADD PUSH2 0x168 SWAP1 PUSH2 0x108E JUMP JUMPDEST PUSH1 0x40 MLOAD DUP1 SWAP2 SUB SWAP1 REVERT JUMPDEST PUSH1 0x3 DUP1 SLOAD PUSH1 0xFF PUSH1 0xA8 SHL NOT AND PUSH1 0x1 PUSH1 0xA8 SHL OR SWAP1 SSTORE CALLVALUE PUSH2 0x1C1 JUMPI PUSH1 0x40 MLOAD PUSH3 0x461BCD PUSH1 0xE5 SHL DUP2 MSTORE PUSH1 0x20 PUSH1 0x4 DUP3 ADD MSTORE PUSH1 0xD PUSH1 0x24 DUP3 ADD MSTORE PUSH13 0x9AEAE6E840E6CADCC8408AA89 PUSH1 0x9B SHL PUSH1 0x44 DUP3 ADD MSTORE PUSH1 0x64 ADD PUSH2 0x168 JUMP JUMPDEST CALLVALUE PUSH1 0x2 PUSH1 0x0 DUP3 DUP3 SLOAD PUSH2 0x1D3 SWAP2 SWAP1 PUSH2 0x10DB JUMP JUMPDEST SWAP1 SWAP2 SSTORE POP POP CALLER PUSH1 0x0 SWAP1 DUP2 MSTORE PUSH1 0x20 DUP2 SWAP1 MSTORE PUSH1 0x40 DUP2 KECCAK256 DUP1 SLOAD CALLVALUE SWAP3 SWAP1 PUSH2 0x1F7 SWAP1 DUP5 SWAP1 PUSH2 0x10DB JUMP JUMPDEST SWAP1 SWAP2 SSTORE POP POP CALLER PUSH1 0x0 DUP2 DUP2 MSTORE PUSH1 0x1 PUSH1 0x20 DUP2 DUP2 MSTORE PUSH1 0x40 SWAP3 DUP4 SWAP1 KECCAK256 DUP1 SLOAD PUSH1 0xFF NOT AND SWAP1 SWAP3 OR SWAP1 SWAP2 SSTORE SWAP1 MLOAD CALLVALUE DUP2 MSTORE PUSH32 0xE1FFFCC4923D04B559F4D29A8BFC6CDA04EB5B0D3C460751C2402C5C5CC9109C SWAP2 ADD PUSH1 0x40 MLOAD DUP1 SWAP2 SUB SWAP1 LOG2 PUSH1 0x3 DUP1 SLOAD PUSH1 0xFF PUSH1 0xA8 SHL NOT AND SWAP1 SSTORE STOP JUMPDEST PUSH1 0x40 MLOAD PUSH3 0x461BCD PUSH1 0xE5 SHL DUP2 MSTORE PUSH1 0x20 PUSH1 0x4 DUP3 ADD MSTORE PUSH1 0x12 PUSH1 0x24 DUP3 ADD MSTORE PUSH18 0x119D5B98DD1A5BDB881B9BDD08199BDD5B99 PUSH1 0x72 SHL PUSH1 0x44 DUP3 ADD MSTORE PUSH1 0x64 ADD PUSH2 0x168 JUMP JUMPDEST CALLVALUE DUP1 ISZERO PUSH2 0x2A3 JUMPI PUSH1 0x0 DUP1 REVERT JUMPDEST POP PUSH2 0x2AC PUSH2 0x5D1 JUMP JUMPDEST STOP JUMPDEST CALLVALUE DUP1 ISZERO PUSH2 0x2BA JUMPI PUSH1 0x0 DUP1 REVERT JUMPDEST POP PUSH2 0x2C3 PUSH2 0x6BC JUMP JUMPDEST PUSH1 0x40 MLOAD PUSH2 0x2D0 SWAP2 SWAP1 PUSH2 0x10F4 JUMP JUMPDEST PUSH1 0x40 MLOAD DUP1 SWAP2 SUB SWAP1 RETURN JUMPDEST CALLVALUE DUP1 ISZERO PUSH2 0x2E5 JUMPI PUSH1 0x0 DUP1 REVERT JUMPDEST POP PUSH2 0x306 PUSH2 0x2F4 CALLDATASIZE PUSH1 0x4 PUSH2 0x1142 JUMP JUMPDEST PUSH1 0x0 PUSH1 0x20 DUP2 SWAP1 MSTORE SWAP1 DUP2 MSTORE PUSH1 0x40 SWAP1 KECCAK256 SLOAD DUP2 JUMP JUMPDEST PUSH1 0x40 MLOAD SWAP1 DUP2 MSTORE PUSH1 0x20 ADD PUSH2 0x2D0 JUMP JUMPDEST CALLVALUE DUP1 ISZERO PUSH2 0x320 JUMPI PUSH1 0x0 DUP1 REVERT JUMPDEST POP PUSH2 0x2AC PUSH2 0x6DC JUMP JUMPDEST CALLVALUE DUP1 ISZERO PUSH2 0x335 JUMPI PUSH1 0x0 DUP1 REVERT JUMPDEST POP PUSH2 0x2AC PUSH2 0x344 CALLDATASIZE PUSH1 0x4 PUSH2 0x1172 JUMP JUMPDEST PUSH2 0x84C JUMP JUMPDEST CALLVALUE DUP1 ISZERO PUSH2 0x355 JUMPI PUSH1 0x0 DUP1 REVERT JUMPDEST POP PUSH2 0x382 PUSH2 0x364 CALLDATASIZE PUSH1 0x4 PUSH2 0x1142 JUMP JUMPDEST PUSH1 0x1 PUSH1 0x1 PUSH1 0xA0 SHL SUB AND PUSH1 0x0 SWAP1 DUP2 MSTORE PUSH1 0x1 PUSH1 0x20 MSTORE PUSH1 0x40 SWAP1 KECCAK256 SLOAD PUSH1 0xFF AND SWAP1 JUMP JUMPDEST PUSH1 0x40 MLOAD SWAP1 ISZERO ISZERO DUP2 MSTORE PUSH1 0x20 ADD PUSH2 0x2D0 JUMP JUMPDEST CALLVALUE DUP1 ISZERO PUSH2 0x39E JUMPI PUSH1 0x0 DUP1 REVERT JUMPDEST POP PUSH2 0x2AC PUSH2 0xA12 JUMP JUMPDEST CALLVALUE DUP1 ISZERO PUSH2 0x3B3 JUMPI PUSH1 0x0 DUP1 REVERT JUMPDEST POP PUSH2 0x2AC PUSH2 0x3C2 CALLDATASIZE PUSH1 0x4 PUSH2 0x1172 JUMP JUMPDEST PUSH2 0xAA2 JUMP JUMPDEST CALLVALUE DUP1 ISZERO PUSH2 0x3D3 JUMPI PUSH1 0x0 DUP1 REVERT JUMPDEST POP PUSH1 0x3 SLOAD PUSH2 0x382 SWAP1 PUSH1 0x1 PUSH1 0xA0 SHL SWAP1 DIV PUSH1 0xFF AND DUP2 JUMP JUMPDEST CALLVALUE DUP1 ISZERO PUSH2 0x3F4 JUMPI PUSH1 0x0 DUP1 REVERT JUMPDEST POP PUSH2 0x2AC PUSH2 0xBD9 JUMP JUMPDEST CALLVALUE DUP1 ISZERO PUSH2 0x409 JUMPI PUSH1 0x0 DUP1 REVERT JUMPDEST POP SELFBALANCE PUSH2 0x306 JUMP JUMPDEST CALLVALUE DUP1 ISZERO PUSH2 0x41C JUMPI PUSH1 0x0 DUP1 REVERT JUMPDEST POP PUSH2 0x306 PUSH1 0x2 SLOAD DUP2 JUMP JUMPDEST CALLVALUE DUP1 ISZERO PUSH2 0x432 JUMPI PUSH1 0x0 DUP1 REVERT JUMPDEST POP PUSH2 0x306 PUSH2 0x441 CALLDATASIZE PUSH1 0x4 PUSH2 0x1142 JUMP JUMPDEST PUSH1 0x1 PUSH1 0x1 PUSH1 0xA0 SHL SUB AND PUSH1 0x0 SWAP1 DUP2 MSTORE PUSH1 0x4 PUSH1 0x20 MSTORE PUSH1 0x40 SWAP1 KECCAK256 SLOAD SWAP1 JUMP JUMPDEST CALLVALUE DUP1 ISZERO PUSH2 0x468 JUMPI PUSH1 0x0 DUP1 REVERT JUMPDEST POP PUSH1 0x3 SLOAD PUSH2 0x47C SWAP1 PUSH1 0x1 PUSH1 0x1 PUSH1 0xA0 SHL SUB AND DUP2 JUMP JUMPDEST PUSH1 0x40 MLOAD PUSH1 0x1 PUSH1 0x1 PUSH1 0xA0 SHL SUB SWAP1 SWAP2 AND DUP2 MSTORE PUSH1 0x20 ADD PUSH2 0x2D0 JUMP JUMPDEST CALLVALUE DUP1 ISZERO PUSH2 0x4A0 JUMPI PUSH1 0x0 DUP1 REVERT JUMPDEST POP PUSH2 0x2AC PUSH2 0x4AF CALLDATASIZE PUSH1 0x4 PUSH2 0x1172 JUMP JUMPDEST PUSH2 0xCBC JUMP JUMPDEST CALLVALUE DUP1 ISZERO PUSH2 0x4C0 JUMPI PUSH1 0x0 DUP1 REVERT JUMPDEST POP PUSH1 0x3 SLOAD PUSH1 0x1 PUSH1 0xA8 SHL SWAP1 DIV PUSH1 0xFF AND PUSH2 0x382 JUMP JUMPDEST PUSH2 0x2AC PUSH2 0xE28 JUMP JUMPDEST CALLVALUE DUP1 ISZERO PUSH2 0x4E7 JUMPI PUSH1 0x0 DUP1 REVERT JUMPDEST POP PUSH2 0x2AC PUSH2 0xF85 JUMP JUMPDEST CALLVALUE DUP1 ISZERO PUSH2 0x4FC JUMPI PUSH1 0x0 DUP1 REVERT JUMPDEST POP PUSH1 0x2 SLOAD PUSH1 0x3 SLOAD PUSH1 0x40 DUP1 MLOAD SELFBALANCE DUP2 MSTORE PUSH1 0x20 DUP2 ADD SWAP4 SWAP1 SWAP4 MSTORE PUSH1 0xFF PUSH1 0x1 PUSH1 0xA0 SHL DUP4 DIV DUP2 AND ISZERO ISZERO SWAP2 DUP5 ADD SWAP2 SWAP1 SWAP2 MSTORE PUSH1 0x1 PUSH1 0xA8 SHL SWAP1 SWAP2 DIV AND ISZERO ISZERO PUSH1 0x60 DUP3 ADD MSTORE PUSH1 0x80 ADD PUSH2 0x2D0 JUMP JUMPDEST CALLVALUE DUP1 ISZERO PUSH2 0x54A JUMPI PUSH1 0x0 DUP1 REVERT JUMPDEST POP PUSH2 0x382 PUSH2 0x559 CALLDATASIZE PUSH1 0x4 PUSH2 0x1142 JUMP JUMPDEST PUSH1 0x1 PUSH1 0x20 MSTORE PUSH1 0x0 SWAP1 DUP2 MSTORE PUSH1 0x40 SWAP1 KECCAK256 SLOAD PUSH1 0xFF AND DUP2 JUMP JUMPDEST CALLVALUE DUP1 ISZERO PUSH2 0x57A JUMPI PUSH1 0x0 DUP1 REVERT JUMPDEST POP PUSH2 0x306 PUSH2 0x589 CALLDATASIZE PUSH1 0x4 PUSH2 0x1142 JUMP JUMPDEST PUSH1 0x4 PUSH1 0x20 MSTORE PUSH1 0x0 SWAP1 DUP2 MSTORE PUSH1 0x40 SWAP1 KECCAK256 SLOAD DUP2 JUMP JUMPDEST CALLVALUE DUP1 ISZERO PUSH2 0x5A7 JUMPI PUSH1 0x0 DUP1 REVERT JUMPDEST POP PUSH2 0x306 PUSH2 0x5B6 CALLDATASIZE PUSH1 0x4 PUSH2 0x1142 JUMP JUMPDEST PUSH1 0x1 PUSH1 0x1 PUSH1 0xA0 SHL SUB AND PUSH1 0x0 SWAP1 DUP2 MSTORE PUSH1 0x20 DUP2 SWAP1 MSTORE PUSH1 0x40 SWAP1 KECCAK256 SLOAD SWAP1 JUMP JUMPDEST PUSH1 0x3 SLOAD PUSH1 0x1 PUSH1 0xA8 SHL SWAP1 DIV PUSH1 0xFF AND ISZERO PUSH2 0x5FB JUMPI PUSH1 0x40 MLOAD PUSH3 0x461BCD PUSH1 0xE5 SHL DUP2 MSTORE PUSH1 0x4 ADD PUSH2 0x168 SWAP1 PUSH2 0x108E JUMP JUMPDEST PUSH1 0x3 DUP1 SLOAD PUSH1 0xFF PUSH1 0xA8 SHL NOT AND PUSH1 0x1 PUSH1 0xA8 SHL OR SWAP1 SSTORE CALLER PUSH1 0x0 SWAP1 DUP2 MSTORE PUSH1 0x4 PUSH1 0x20 MSTORE PUSH1 0x40 SWAP1 KECCAK256 SLOAD DUP1 PUSH2 0x663 JUMPI PUSH1 0x40 MLOAD PUSH3 0x461BCD PUSH1 0xE5 SHL DUP2 MSTORE PUSH1 0x20 PUSH1 0x4 DUP3 ADD MSTORE PUSH1 0x15 PUSH1 0x24 DUP3 ADD MSTORE PUSH21 0x139BC81C195B991A5B99C81DDA5D1A191C985DD85B PUSH1 0x5A SHL PUSH1 0x44 DUP3 ADD MSTORE PUSH1 0x64 ADD PUSH2 0x168 JUMP JUMPDEST CALLER PUSH1 0x0 SWAP1 DUP2 MSTORE PUSH1 0x4 PUSH1 0x20 SWAP1 DUP2 MSTORE PUSH1 0x40 DUP1 DUP4 KECCAK256 DUP4 SWAP1 SSTORE SWAP1 DUP3 SWAP1 MSTORE DUP2 KECCAK256 DUP1 SLOAD DUP4 SWAP3 SWAP1 PUSH2 0x68E SWAP1 DUP5 SWAP1 PUSH2 0x10DB JUMP JUMPDEST SWAP3 POP POP DUP2 SWAP1 SSTORE POP DUP1 PUSH1 0x2 PUSH1 0x0 DUP3 DUP3 SLOAD PUSH2 0x6A7 SWAP2 SWAP1 PUSH2 0x10DB JUMP JUMPDEST SWAP1 SWAP2 SSTORE POP POP PUSH1 0x3 DUP1 SLOAD PUSH1 0xFF PUSH1 0xA8 SHL NOT AND SWAP1 SSTORE POP JUMP JUMPDEST PUSH1 0x60 PUSH1 0x40 MLOAD DUP1 PUSH1 0x60 ADD PUSH1 0x40 MSTORE DUP1 PUSH1 0x26 DUP2 MSTORE PUSH1 0x20 ADD PUSH2 0x1283 PUSH1 0x26 SWAP2 CODECOPY SWAP1 POP SWAP1 JUMP JUMPDEST PUSH1 0x3 SLOAD PUSH1 0x1 PUSH1 0x1 PUSH1 0xA0 SHL SUB AND CALLER EQ PUSH2 0x706 JUMPI PUSH1 0x40 MLOAD PUSH3 0x461BCD PUSH1 0xE5 SHL DUP2 MSTORE PUSH1 0x4 ADD PUSH2 0x168 SWAP1 PUSH2 0x118B JUMP JUMPDEST PUSH1 0x3 SLOAD PUSH1 0x1 PUSH1 0xA8 SHL SWAP1 DIV PUSH1 0xFF AND ISZERO PUSH2 0x730 JUMPI PUSH1 0x40 MLOAD PUSH3 0x461BCD PUSH1 0xE5 SHL DUP2 MSTORE PUSH1 0x4 ADD PUSH2 0x168 SWAP1 PUSH2 0x108E JUMP JUMPDEST PUSH1 0x3 DUP1 SLOAD PUSH1 0xFF PUSH1 0xA8 SHL NOT AND PUSH1 0x1 PUSH1 0xA8 SHL OR SWAP1 DUP2 SWAP1 SSTORE PUSH1 0x1 PUSH1 0xA0 SHL SWAP1 DIV PUSH1 0xFF AND PUSH2 0x79B JUMPI PUSH1 0x40 MLOAD PUSH3 0x461BCD PUSH1 0xE5 SHL DUP2 MSTORE PUSH1 0x20 PUSH1 0x4 DUP3 ADD DUP2 SWAP1 MSTORE PUSH1 0x24 DUP3 ADD MSTORE PUSH32 0x456D657267656E63792073746F70206D75737420626520616374697661746564 PUSH1 0x44 DUP3 ADD MSTORE PUSH1 0x64 ADD PUSH2 0x168 JUMP JUMPDEST PUSH1 0x3 SLOAD PUSH1 0x40 MLOAD SELFBALANCE SWAP2 PUSH1 0x0 SWAP2 PUSH1 0x1 PUSH1 0x1 PUSH1 0xA0 SHL SUB SWAP1 SWAP2 AND SWAP1 DUP4 SWAP1 DUP4 DUP2 DUP2 DUP2 DUP6 DUP8 GAS CALL SWAP3 POP POP POP RETURNDATASIZE DUP1 PUSH1 0x0 DUP2 EQ PUSH2 0x7EC JUMPI PUSH1 0x40 MLOAD SWAP2 POP PUSH1 0x1F NOT PUSH1 0x3F RETURNDATASIZE ADD AND DUP3 ADD PUSH1 0x40 MSTORE RETURNDATASIZE DUP3 MSTORE RETURNDATASIZE PUSH1 0x0 PUSH1 0x20 DUP5 ADD RETURNDATACOPY PUSH2 0x7F1 JUMP JUMPDEST PUSH1 0x60 SWAP2 POP JUMPDEST POP POP SWAP1 POP DUP1 PUSH2 0x83B JUMPI PUSH1 0x40 MLOAD PUSH3 0x461BCD PUSH1 0xE5 SHL DUP2 MSTORE PUSH1 0x20 PUSH1 0x4 DUP3 ADD MSTORE PUSH1 0x16 PUSH1 0x24 DUP3 ADD MSTORE PUSH22 0x115B595C99D95B98DE48191C985A5B8819985A5B1959 PUSH1 0x52 SHL PUSH1 0x44 DUP3 ADD MSTORE PUSH1 0x64 ADD PUSH2 0x168 JUMP JUMPDEST POP POP PUSH1 0x3 DUP1 SLOAD PUSH1 0xFF PUSH1 0xA8 SHL NOT AND SWAP1 SSTORE JUMP JUMPDEST PUSH1 0x3 SLOAD PUSH1 0x1 PUSH1 0xA0 SHL SWAP1 DIV PUSH1 0xFF AND ISZERO PUSH2 0x876 JUMPI PUSH1 0x40 MLOAD PUSH3 0x461BCD PUSH1 0xE5 SHL DUP2 MSTORE PUSH1 0x4 ADD PUSH2 0x168 SWAP1 PUSH2 0x11CC JUMP JUMPDEST PUSH1 0x3 SLOAD PUSH1 0x1 PUSH1 0xA8 SHL SWAP1 DIV PUSH1 0xFF AND ISZERO PUSH2 0x8A0 JUMPI PUSH1 0x40 MLOAD PUSH3 0x461BCD PUSH1 0xE5 SHL DUP2 MSTORE PUSH1 0x4 ADD PUSH2 0x168 SWAP1 PUSH2 0x108E JUMP JUMPDEST PUSH1 0x3 DUP1 SLOAD PUSH1 0xFF PUSH1 0xA8 SHL NOT AND PUSH1 0x1 PUSH1 0xA8 SHL OR SWAP1 SSTORE DUP1 PUSH2 0x8D0 JUMPI PUSH1 0x40 MLOAD PUSH3 0x461BCD PUSH1 0xE5 SHL DUP2 MSTORE PUSH1 0x4 ADD PUSH2 0x168 SWAP1 PUSH2 0x11F9 JUMP JUMPDEST CALLER PUSH1 0x0 SWAP1 DUP2 MSTORE PUSH1 0x20 DUP2 SWAP1 MSTORE PUSH1 0x40 SWAP1 KECCAK256 SLOAD DUP2 GT ISZERO PUSH2 0x8FF JUMPI PUSH1 0x40 MLOAD PUSH3 0x461BCD PUSH1 0xE5 SHL DUP2 MSTORE PUSH1 0x4 ADD PUSH2 0x168 SWAP1 PUSH2 0x1241 JUMP JUMPDEST CALLER PUSH1 0x0 SWAP1 DUP2 MSTORE PUSH1 0x20 DUP2 SWAP1 MSTORE PUSH1 0x40 DUP2 KECCAK256 DUP1 SLOAD DUP4 SWAP3 SWAP1 PUSH2 0x91E SWAP1 DUP5 SWAP1 PUSH2 0x126F JUMP JUMPDEST SWAP3 POP POP DUP2 SWAP1 SSTORE POP DUP1 PUSH1 0x2 PUSH1 0x0 DUP3 DUP3 SLOAD PUSH2 0x937 SWAP2 SWAP1 PUSH2 0x126F JUMP JUMPDEST SWAP1 SWAP2 SSTORE POP POP PUSH1 0x40 MLOAD PUSH1 0x0 SWAP1 CALLER SWAP1 DUP4 SWAP1 JUMPDEST PUSH1 0x0 PUSH1 0x40 MLOAD DUP1 DUP4 SUB DUP2 DUP6 DUP8 GAS CALL SWAP3 POP POP POP RETURNDATASIZE DUP1 PUSH1 0x0 DUP2 EQ PUSH2 0x984 JUMPI PUSH1 0x40 MLOAD SWAP2 POP PUSH1 0x1F NOT PUSH1 0x3F RETURNDATASIZE ADD AND DUP3 ADD PUSH1 0x40 MSTORE RETURNDATASIZE DUP3 MSTORE RETURNDATASIZE PUSH1 0x0 PUSH1 0x20 DUP5 ADD RETURNDATACOPY PUSH2 0x989 JUMP JUMPDEST PUSH1 0x60 SWAP2 POP JUMPDEST POP POP SWAP1 POP DUP1 PUSH2 0x9CC JUMPI PUSH1 0x40 MLOAD PUSH3 0x461BCD PUSH1 0xE5 SHL DUP2 MSTORE PUSH1 0x20 PUSH1 0x4 DUP3 ADD MSTORE PUSH1 0xF PUSH1 0x24 DUP3 ADD MSTORE PUSH15 0x151C985B9CD9995C8819985A5B1959 PUSH1 0x8A SHL PUSH1 0x44 DUP3 ADD MSTORE PUSH1 0x64 ADD PUSH2 0x168 JUMP JUMPDEST PUSH1 0x40 MLOAD DUP3 DUP2 MSTORE CALLER SWAP1 PUSH32 0x7FCF532C15F0A6DB0BD6D0E038BEA71D30D808C7D98CB3BF7268A95BF5081B65 SWAP1 PUSH1 0x20 ADD PUSH1 0x40 MLOAD DUP1 SWAP2 SUB SWAP1 LOG2 POP POP PUSH1 0x3 DUP1 SLOAD PUSH1 0xFF PUSH1 0xA8 SHL NOT AND SWAP1 SSTORE JUMP JUMPDEST PUSH1 0x3 SLOAD PUSH1 0x1 PUSH1 0x1 PUSH1 0xA0 SHL SUB AND CALLER EQ PUSH2 0xA3C JUMPI PUSH1 0x40 MLOAD PUSH3 0x461BCD PUSH1 0xE5 SHL DUP2 MSTORE PUSH1 0x4 ADD PUSH2 0x168 SWAP1 PUSH2 0x118B JUMP JUMPDEST PUSH1 0x3 DUP1 SLOAD PUSH1 0xFF PUSH1 0x1 PUSH1 0xA0 SHL DUP1 DUP4 DIV DUP3 AND ISZERO DUP2 MUL PUSH1 0xFF PUSH1 0xA0 SHL NOT SWAP1 SWAP4 AND SWAP3 SWAP1 SWAP3 OR SWAP3 DUP4 SWAP1 SSTORE PUSH1 0x40 MLOAD PUSH32 0xCBE1B789CDA412D9E1C647ED03D0C71E2F71484BE36F9CA2B2A346B29EDF1B70 SWAP4 PUSH2 0xA98 SWAP4 SWAP1 DIV SWAP1 SWAP2 AND ISZERO ISZERO DUP2 MSTORE PUSH1 0x20 ADD SWAP1 JUMP JUMPDEST PUSH1 0x40 MLOAD DUP1 SWAP2 SUB SWAP1 LOG1 JUMP JUMPDEST PUSH1 0x3 SLOAD PUSH1 0x1 PUSH1 0xA0 SHL SWAP1 DIV PUSH1 0xFF AND ISZERO PUSH2 0xACC JUMPI PUSH1 0x40 MLOAD PUSH3 0x461BCD PUSH1 0xE5 SHL DUP2 MSTORE PUSH1 0x4 ADD PUSH2 0x168 SWAP1 PUSH2 0x11CC JUMP JUMPDEST PUSH1 0x3 SLOAD PUSH1 0x1 PUSH1 0xA8 SHL SWAP1 DIV PUSH1 0xFF AND ISZERO PUSH2 0xAF6 JUMPI PUSH1 0x40 MLOAD PUSH3 0x461BCD PUSH1 0xE5 SHL DUP2 MSTORE PUSH1 0x4 ADD PUSH2 0x168 SWAP1 PUSH2 0x108E JUMP JUMPDEST PUSH1 0x3 DUP1 SLOAD PUSH1 0xFF PUSH1 0xA8 SHL NOT AND PUSH1 0x1 PUSH1 0xA8 SHL OR SWAP1 SSTORE DUP1 PUSH2 0xB26 JUMPI PUSH1 0x40 MLOAD PUSH3 0x461BCD PUSH1 0xE5 SHL DUP2 MSTORE PUSH1 0x4 ADD PUSH2 0x168 SWAP1 PUSH2 0x11F9 JUMP JUMPDEST CALLER PUSH1 0x0 SWAP1 DUP2 MSTORE PUSH1 0x20 DUP2 SWAP1 MSTORE PUSH1 0x40 SWAP1 KECCAK256 SLOAD DUP2 GT ISZERO PUSH2 0xB55 JUMPI PUSH1 0x40 MLOAD PUSH3 0x461BCD PUSH1 0xE5 SHL DUP2 MSTORE PUSH1 0x4 ADD PUSH2 0x168 SWAP1 PUSH2 0x1241 JUMP JUMPDEST CALLER PUSH1 0x0 SWAP1 DUP2 MSTORE PUSH1 0x20 DUP2 SWAP1 MSTORE PUSH1 0x40 DUP2 KECCAK256 DUP1 SLOAD DUP4 SWAP3 SWAP1 PUSH2 0xB74 SWAP1 DUP5 SWAP1 PUSH2 0x126F JUMP JUMPDEST SWAP3 POP POP DUP2 SWAP1 SSTORE POP DUP1 PUSH1 0x2 PUSH1 0x0 DUP3 DUP3 SLOAD PUSH2 0xB8D SWAP2 SWAP1 PUSH2 0x126F JUMP JUMPDEST SWAP1 SWAP2 SSTORE POP POP PUSH1 0x40 MLOAD PUSH1 0x0 SWAP1 CALLER SWAP1 PUSH2 0x8FC SWAP1 DUP5 SWAP1 DUP5 DUP2 DUP2 DUP2 DUP6 DUP9 DUP9 CALL SWAP4 POP POP POP POP RETURNDATASIZE DUP1 PUSH1 0x0 DUP2 EQ PUSH2 0x984 JUMPI PUSH1 0x40 MLOAD SWAP2 POP PUSH1 0x1F NOT PUSH1 0x3F RETURNDATASIZE ADD AND DUP3 ADD PUSH1 0x40 MSTORE RETURNDATASIZE DUP3 MSTORE RETURNDATASIZE PUSH1 0x0 PUSH1 0x20 DUP5 ADD RETURNDATACOPY PUSH2 0x989 JUMP JUMPDEST PUSH1 0x3 SLOAD PUSH1 0x1 PUSH1 0xA8 SHL SWAP1 DIV PUSH1 0xFF AND ISZERO PUSH2 0xC03 JUMPI PUSH1 0x40 MLOAD PUSH3 0x461BCD PUSH1 0xE5 SHL DUP2 MSTORE PUSH1 0x4 ADD PUSH2 0x168 SWAP1 PUSH2 0x108E JUMP JUMPDEST PUSH1 0x3 DUP1 SLOAD PUSH1 0xFF PUSH1 0xA8 SHL NOT AND PUSH1 0x1 PUSH1 0xA8 SHL OR SWAP1 SSTORE CALLER PUSH1 0x0 SWAP1 DUP2 MSTORE PUSH1 0x4 PUSH1 0x20 MSTORE PUSH1 0x40 SWAP1 KECCAK256 SLOAD DUP1 PUSH2 0xC6B JUMPI PUSH1 0x40 MLOAD PUSH3 0x461BCD PUSH1 0xE5 SHL DUP2 MSTORE PUSH1 0x20 PUSH1 0x4 DUP3 ADD MSTORE PUSH1 0x15 PUSH1 0x24 DUP3 ADD MSTORE PUSH21 0x139BC81C195B991A5B99C81DDA5D1A191C985DD85B PUSH1 0x5A SHL PUSH1 0x44 DUP3 ADD MSTORE PUSH1 0x64 ADD PUSH2 0x168 JUMP JUMPDEST CALLER PUSH1 0x0 DUP2 DUP2 MSTORE PUSH1 0x4 PUSH1 0x20 MSTORE PUSH1 0x40 DUP1 DUP3 KECCAK256 DUP3 SWAP1 SSTORE MLOAD SWAP1 SWAP2 SWAP1 DUP4 SWAP1 DUP4 DUP2 DUP2 DUP2 DUP6 DUP8 GAS CALL SWAP3 POP POP POP RETURNDATASIZE DUP1 PUSH1 0x0 DUP2 EQ PUSH2 0x984 JUMPI PUSH1 0x40 MLOAD SWAP2 POP PUSH1 0x1F NOT PUSH1 0x3F RETURNDATASIZE ADD AND DUP3 ADD PUSH1 0x40 MSTORE RETURNDATASIZE DUP3 MSTORE RETURNDATASIZE PUSH1 0x0 PUSH1 0x20 DUP5 ADD RETURNDATACOPY PUSH2 0x989 JUMP JUMPDEST PUSH1 0x3 SLOAD PUSH1 0x1 PUSH1 0xA0 SHL SWAP1 DIV PUSH1 0xFF AND ISZERO PUSH2 0xCE6 JUMPI PUSH1 0x40 MLOAD PUSH3 0x461BCD PUSH1 0xE5 SHL DUP2 MSTORE PUSH1 0x4 ADD PUSH2 0x168 SWAP1 PUSH2 0x11CC JUMP JUMPDEST PUSH1 0x3 SLOAD PUSH1 0x1 PUSH1 0xA8 SHL SWAP1 DIV PUSH1 0xFF AND ISZERO PUSH2 0xD10 JUMPI PUSH1 0x40 MLOAD PUSH3 0x461BCD PUSH1 0xE5 SHL DUP2 MSTORE PUSH1 0x4 ADD PUSH2 0x168 SWAP1 PUSH2 0x108E JUMP JUMPDEST PUSH1 0x3 DUP1 SLOAD PUSH1 0xFF PUSH1 0xA8 SHL NOT AND PUSH1 0x1 PUSH1 0xA8 SHL OR SWAP1 SSTORE DUP1 PUSH2 0xD40 JUMPI PUSH1 0x40 MLOAD PUSH3 0x461BCD PUSH1 0xE5 SHL DUP2 MSTORE PUSH1 0x4 ADD PUSH2 0x168 SWAP1 PUSH2 0x11F9 JUMP JUMPDEST CALLER PUSH1 0x0 SWAP1 DUP2 MSTORE PUSH1 0x20 DUP2 SWAP1 MSTORE PUSH1 0x40 SWAP1 KECCAK256 SLOAD DUP2 GT ISZERO PUSH2 0xD6F JUMPI PUSH1 0x40 MLOAD PUSH3 0x461BCD PUSH1 0xE5 SHL DUP2 MSTORE PUSH1 0x4 ADD PUSH2 0x168 SWAP1 PUSH2 0x1241 JUMP JUMPDEST CALLER PUSH1 0x0 SWAP1 DUP2 MSTORE PUSH1 0x4 PUSH1 0x20 MSTORE PUSH1 0x40 SWAP1 KECCAK256 SLOAD ISZERO PUSH2 0xDCC JUMPI PUSH1 0x40 MLOAD PUSH3 0x461BCD PUSH1 0xE5 SHL DUP2 MSTORE PUSH1 0x20 PUSH1 0x4 DUP3 ADD MSTORE PUSH1 0x1A PUSH1 0x24 DUP3 ADD MSTORE PUSH32 0x5769746864726177616C20616C72656164792070656E64696E67000000000000 PUSH1 0x44 DUP3 ADD MSTORE PUSH1 0x64 ADD PUSH2 0x168 JUMP JUMPDEST CALLER PUSH1 0x0 SWAP1 DUP2 MSTORE PUSH1 0x20 DUP2 SWAP1 MSTORE PUSH1 0x40 DUP2 KECCAK256 DUP1 SLOAD DUP4 SWAP3 SWAP1 PUSH2 0xDEB SWAP1 DUP5 SWAP1 PUSH2 0x126F JUMP JUMPDEST SWAP3 POP POP DUP2 SWAP1 SSTORE POP DUP1 PUSH1 0x2 PUSH1 0x0 DUP3 DUP3 SLOAD PUSH2 0xE04 SWAP2 SWAP1 PUSH2 0x126F JUMP JUMPDEST SWAP1 SWAP2 SSTORE POP POP CALLER PUSH1 0x0 SWAP1 DUP2 MSTORE PUSH1 0x4 PUSH1 0x20 MSTORE PUSH1 0x40 SWAP1 KECCAK256 SSTORE PUSH1 0x3 DUP1 SLOAD PUSH1 0xFF PUSH1 0xA8 SHL NOT AND SWAP1 SSTORE JUMP JUMPDEST PUSH1 0x3 SLOAD PUSH1 0x1 PUSH1 0xA0 SHL SWAP1 DIV PUSH1 0xFF AND ISZERO PUSH2 0xE52 JUMPI PUSH1 0x40 MLOAD PUSH3 0x461BCD PUSH1 0xE5 SHL DUP2 MSTORE PUSH1 0x4 ADD PUSH2 0x168 SWAP1 PUSH2 0x11CC JUMP JUMPDEST PUSH1 0x3 SLOAD PUSH1 0x1 PUSH1 0xA8 SHL SWAP1 DIV PUSH1 0xFF AND ISZERO PUSH2 0xE7C JUMPI PUSH1 0x40 MLOAD PUSH3 0x461BCD PUSH1 0xE5 SHL DUP2 MSTORE PUSH1 0x4 ADD PUSH2 0x168 SWAP1 PUSH2 0x108E JUMP JUMPDEST PUSH1 0x3 DUP1 SLOAD PUSH1 0xFF PUSH1 0xA8 SHL NOT AND PUSH1 0x1 PUSH1 0xA8 SHL OR SWAP1 SSTORE CALLVALUE PUSH2 0xEEA JUMPI PUSH1 0x40 MLOAD PUSH3 0x461BCD PUSH1 0xE5 SHL DUP2 MSTORE PUSH1 0x20 PUSH1 0x4 DUP3 ADD MSTORE PUSH1 0x25 PUSH1 0x24 DUP3 ADD MSTORE PUSH32 0x4465706F73697420616D6F756E74206D75737420626520677265617465722074 PUSH1 0x44 DUP3 ADD MSTORE PUSH5 0x68616E203 PUSH1 0xDC SHL PUSH1 0x64 DUP3 ADD MSTORE PUSH1 0x84 ADD PUSH2 0x168 JUMP JUMPDEST CALLER PUSH1 0x0 SWAP1 DUP2 MSTORE PUSH1 0x20 DUP2 SWAP1 MSTORE PUSH1 0x40 DUP2 KECCAK256 DUP1 SLOAD CALLVALUE SWAP3 SWAP1 PUSH2 0xF09 SWAP1 DUP5 SWAP1 PUSH2 0x10DB JUMP JUMPDEST SWAP3 POP POP DUP2 SWAP1 SSTORE POP CALLVALUE PUSH1 0x2 PUSH1 0x0 DUP3 DUP3 SLOAD PUSH2 0xF22 SWAP2 SWAP1 PUSH2 0x10DB JUMP JUMPDEST SWAP1 SWAP2 SSTORE POP POP CALLER PUSH1 0x0 DUP2 DUP2 MSTORE PUSH1 0x1 PUSH1 0x20 DUP2 DUP2 MSTORE PUSH1 0x40 SWAP3 DUP4 SWAP1 KECCAK256 DUP1 SLOAD PUSH1 0xFF NOT AND SWAP1 SWAP3 OR SWAP1 SWAP2 SSTORE SWAP1 MLOAD CALLVALUE DUP2 MSTORE PUSH32 0xE1FFFCC4923D04B559F4D29A8BFC6CDA04EB5B0D3C460751C2402C5C5CC9109C SWAP2 ADD PUSH1 0x40 MLOAD DUP1 SWAP2 SUB SWAP1 LOG2 PUSH1 0x3 DUP1 SLOAD PUSH1 0xFF PUSH1 0xA8 SHL NOT AND SWAP1 SSTORE JUMP JUMPDEST PUSH1 0x3 SLOAD PUSH1 0x1 PUSH1 0xA0 SHL SWAP1 DIV PUSH1 0xFF AND ISZERO PUSH2 0xFAF JUMPI PUSH1 0x40 MLOAD PUSH3 0x461BCD PUSH1 0xE5 SHL DUP2 MSTORE PUSH1 0x4 ADD PUSH2 0x168 SWAP1 PUSH2 0x11CC JUMP JUMPDEST PUSH1 0x3 SLOAD PUSH1 0x1 PUSH1 0xA8 SHL SWAP1 DIV PUSH1 0xFF AND ISZERO PUSH2 0xFD9 JUMPI PUSH1 0x40 MLOAD PUSH3 0x461BCD PUSH1 0xE5 SHL DUP2 MSTORE PUSH1 0x4 ADD PUSH2 0x168 SWAP1 PUSH2 0x108E JUMP JUMPDEST PUSH1 0x3 DUP1 SLOAD PUSH1 0xFF PUSH1 0xA8 SHL NOT AND PUSH1 0x1 PUSH1 0xA8 SHL OR SWAP1 SSTORE CALLER PUSH1 0x0 SWAP1 DUP2 MSTORE PUSH1 0x20 DUP2 SWAP1 MSTORE PUSH1 0x40 SWAP1 KECCAK256 SLOAD DUP1 PUSH2 0x1042 JUMPI PUSH1 0x40 MLOAD PUSH3 0x461BCD PUSH1 0xE5 SHL DUP2 MSTORE PUSH1 0x20 PUSH1 0x4 DUP3 ADD MSTORE PUSH1 0x16 PUSH1 0x24 DUP3 ADD MSTORE PUSH22 0x4E6F2062616C616E636520746F207769746864726177 PUSH1 0x50 SHL PUSH1 0x44 DUP3 ADD MSTORE PUSH1 0x64 ADD PUSH2 0x168 JUMP JUMPDEST CALLER PUSH1 0x0 SWAP1 DUP2 MSTORE PUSH1 0x20 DUP2 SWAP1 MSTORE PUSH1 0x40 DUP2 KECCAK256 DUP2 SWAP1 SSTORE PUSH1 0x2 DUP1 SLOAD DUP4 SWAP3 SWAP1 PUSH2 0x1066 SWAP1 DUP5 SWAP1 PUSH2 0x126F JUMP JUMPDEST SWAP1 SWAP2 SSTORE POP POP CALLER PUSH1 0x0 DUP2 DUP2 MSTORE PUSH1 0x1 PUSH1 0x20 MSTORE PUSH1 0x40 DUP1 DUP3 KECCAK256 DUP1 SLOAD PUSH1 0xFF NOT AND SWAP1 SSTORE MLOAD SWAP1 SWAP2 SWAP1 DUP4 SWAP1 PUSH2 0x947 JUMP JUMPDEST PUSH1 0x20 DUP1 DUP3 MSTORE PUSH1 0x1F SWAP1 DUP3 ADD MSTORE PUSH32 0x5265656E7472616E637947756172643A207265656E7472616E742063616C6C00 PUSH1 0x40 DUP3 ADD MSTORE PUSH1 0x60 ADD SWAP1 JUMP JUMPDEST PUSH4 0x4E487B71 PUSH1 0xE0 SHL PUSH1 0x0 MSTORE PUSH1 0x11 PUSH1 0x4 MSTORE PUSH1 0x24 PUSH1 0x0 REVERT JUMPDEST DUP1 DUP3 ADD DUP1 DUP3 GT ISZERO PUSH2 0x10EE JUMPI PUSH2 0x10EE PUSH2 0x10C5 JUMP JUMPDEST SWAP3 SWAP2 POP POP JUMP JUMPDEST PUSH1 0x0 PUSH1 0x20 DUP1 DUP4 MSTORE DUP4 MLOAD DUP1 DUP3 DUP6 ADD MSTORE PUSH1 0x0 JUMPDEST DUP2 DUP2 LT ISZERO PUSH2 0x1121 JUMPI DUP6 DUP2 ADD DUP4 ADD MLOAD DUP6 DUP3 ADD PUSH1 0x40 ADD MSTORE DUP3 ADD PUSH2 0x1105 JUMP JUMPDEST POP PUSH1 0x0 PUSH1 0x40 DUP3 DUP7 ADD ADD MSTORE PUSH1 0x40 PUSH1 0x1F NOT PUSH1 0x1F DUP4 ADD AND DUP6 ADD ADD SWAP3 POP POP POP SWAP3 SWAP2 POP POP JUMP JUMPDEST PUSH1 0x0 PUSH1 0x20 DUP3 DUP5 SUB SLT ISZERO PUSH2 0x1154 JUMPI PUSH1 0x0 DUP1 REVERT JUMPDEST DUP2 CALLDATALOAD PUSH1 0x1 PUSH1 0x1 PUSH1 0xA0 SHL SUB DUP2 AND DUP2 EQ PUSH2 0x116B JUMPI PUSH1 0x0 DUP1 REVERT JUMPDEST SWAP4 SWAP3 POP POP POP JUMP JUMPDEST PUSH1 0x0 PUSH1 0x20 DUP3 DUP5 SUB SLT ISZERO PUSH2 0x1184 JUMPI PUSH1 0x0 DUP1 REVERT JUMPDEST POP CALLDATALOAD SWAP2 SWAP1 POP JUMP JUMPDEST PUSH1 0x20 DUP1 DUP3 MSTORE PUSH1 0x21 SWAP1 DUP3 ADD MSTORE PUSH32 0x4F6E6C79206F776E65722063616E2063616C6C20746869732066756E6374696F PUSH1 0x40 DUP3 ADD MSTORE PUSH1 0x37 PUSH1 0xF9 SHL PUSH1 0x60 DUP3 ADD MSTORE PUSH1 0x80 ADD SWAP1 JUMP JUMPDEST PUSH1 0x20 DUP1 DUP3 MSTORE PUSH1 0x13 SWAP1 DUP3 ADD MSTORE PUSH19 0x10DBDB9D1C9858DD081A5CC81CDD1BDC1C1959 PUSH1 0x6A SHL PUSH1 0x40 DUP3 ADD MSTORE PUSH1 0x60 ADD SWAP1 JUMP JUMPDEST PUSH1 0x20 DUP1 DUP3 MSTORE PUSH1 0x28 SWAP1 DUP3 ADD MSTORE PUSH32 0x5769746864726177616C20616D6F756E74206D75737420626520677265617465 PUSH1 0x40 DUP3 ADD MSTORE PUSH8 0x72207468616E203 PUSH1 0xC4 SHL PUSH1 0x60 DUP3 ADD MSTORE PUSH1 0x80 ADD SWAP1 JUMP JUMPDEST PUSH1 0x20 DUP1 DUP3 MSTORE PUSH1 0x14 SWAP1 DUP3 ADD MSTORE PUSH20 0x496E73756666696369656E742062616C616E6365 PUSH1 0x60 SHL PUSH1 0x40 DUP3 ADD MSTORE PUSH1 0x60 ADD SWAP1 JUMP JUMPDEST DUP2 DUP2 SUB DUP2 DUP2 GT ISZERO PUSH2 0x10EE JUMPI PUSH2 0x10EE PUSH2 0x10C5 JUMP INVALID MSTORE8 PUSH6 0x637572654261 PUSH15 0x6B2076312E30202D205265656E7472 PUSH2 0x6E63 PUSH26 0x2050726F746563746564A264697066735822122099C3100EDD39 0xAF EXTCODESIZE 0xC3 CALLDATASIZE 0x2C GASPRICE DUP3 SWAP14 JUMPDEST DIV DUP2 JUMPDEST SSTORE PUSH18 0xE231EABF1B0ABFF0CDE547B864736F6C6343 STOP ADDMOD SGT STOP CALLER "},"methodIdentifiers":{"balances(address)":"27e235e3","cancelPendingWithdrawal()":"05836c81","claimWithdrawal()":"6e66d84a","deposit()":"d0e30db0","depositors(address)":"eed75f6d","emergencyDrain()":"2caac08b","emergencyStop()":"63a599a4","emergencyWithdraw()":"db2e21bc","getBalance(address)":"f8b2cb4f","getContractBalance()":"6f9fb98a","getContractStats()":"dfe6b5d6","getPendingWithdrawal(address)":"7ee8b2f8","getVersion()":"0d8e6e2c","isDepositor(address)":"2f70d1ba","isLocked()":"a4e2d634","owner()":"8da5cb5b","pendingWithdrawals(address)":"f3f43703","requestWithdrawal(uint256)":"9ee679e8","toggleEmergencyStop()":"4b7aac94","totalDeposits()":"7d882097","withdraw(uint256)":"2e1a7d4d","withdrawWithGasLimit(uint256)":"5a3ff596"}}}}}